{
  "contractName": "WoofGang",
  "abi": [
    {
      "inputs": [
        {
          "internalType": "string",
          "name": "nameOfContract",
          "type": "string"
        },
        {
          "internalType": "string",
          "name": "symbolOfContract",
          "type": "string"
        },
        {
          "internalType": "string",
          "name": "uriOfContract",
          "type": "string"
        },
        {
          "internalType": "uint256",
          "name": "mintEndTimeOfContract",
          "type": "uint256"
        },
        {
          "internalType": "uint256",
          "name": "mintPriceOfContract",
          "type": "uint256"
        }
      ],
      "stateMutability": "nonpayable",
      "type": "constructor"
    },
    {
      "anonymous": false,
      "inputs": [
        {
          "indexed": true,
          "internalType": "address",
          "name": "account",
          "type": "address"
        },
        {
          "indexed": true,
          "internalType": "address",
          "name": "operator",
          "type": "address"
        },
        {
          "indexed": false,
          "internalType": "bool",
          "name": "approved",
          "type": "bool"
        }
      ],
      "name": "ApprovalForAll",
      "type": "event"
    },
    {
      "anonymous": false,
      "inputs": [
        {
          "indexed": false,
          "internalType": "uint256",
          "name": "tokenId",
          "type": "uint256"
        }
      ],
      "name": "NFTAirDrop",
      "type": "event"
    },
    {
      "anonymous": false,
      "inputs": [
        {
          "indexed": true,
          "internalType": "address",
          "name": "previousOwner",
          "type": "address"
        },
        {
          "indexed": true,
          "internalType": "address",
          "name": "newOwner",
          "type": "address"
        }
      ],
      "name": "OwnershipTransferred",
      "type": "event"
    },
    {
      "anonymous": false,
      "inputs": [
        {
          "indexed": false,
          "internalType": "address",
          "name": "account",
          "type": "address"
        }
      ],
      "name": "Paused",
      "type": "event"
    },
    {
      "anonymous": false,
      "inputs": [
        {
          "indexed": true,
          "internalType": "address",
          "name": "operator",
          "type": "address"
        },
        {
          "indexed": true,
          "internalType": "address",
          "name": "from",
          "type": "address"
        },
        {
          "indexed": true,
          "internalType": "address",
          "name": "to",
          "type": "address"
        },
        {
          "indexed": false,
          "internalType": "uint256[]",
          "name": "ids",
          "type": "uint256[]"
        },
        {
          "indexed": false,
          "internalType": "uint256[]",
          "name": "values",
          "type": "uint256[]"
        }
      ],
      "name": "TransferBatch",
      "type": "event"
    },
    {
      "anonymous": false,
      "inputs": [
        {
          "indexed": true,
          "internalType": "address",
          "name": "operator",
          "type": "address"
        },
        {
          "indexed": true,
          "internalType": "address",
          "name": "from",
          "type": "address"
        },
        {
          "indexed": true,
          "internalType": "address",
          "name": "to",
          "type": "address"
        },
        {
          "indexed": false,
          "internalType": "uint256",
          "name": "id",
          "type": "uint256"
        },
        {
          "indexed": false,
          "internalType": "uint256",
          "name": "value",
          "type": "uint256"
        }
      ],
      "name": "TransferSingle",
      "type": "event"
    },
    {
      "anonymous": false,
      "inputs": [
        {
          "indexed": false,
          "internalType": "string",
          "name": "value",
          "type": "string"
        },
        {
          "indexed": true,
          "internalType": "uint256",
          "name": "id",
          "type": "uint256"
        }
      ],
      "name": "URI",
      "type": "event"
    },
    {
      "anonymous": false,
      "inputs": [
        {
          "indexed": false,
          "internalType": "address",
          "name": "account",
          "type": "address"
        }
      ],
      "name": "Unpaused",
      "type": "event"
    },
    {
      "anonymous": false,
      "inputs": [
        {
          "indexed": false,
          "internalType": "uint256",
          "name": "tokenId",
          "type": "uint256"
        }
      ],
      "name": "newNFTCreated",
      "type": "event"
    },
    {
      "inputs": [
        {
          "internalType": "address",
          "name": "account",
          "type": "address"
        },
        {
          "internalType": "uint256",
          "name": "id",
          "type": "uint256"
        }
      ],
      "name": "balanceOf",
      "outputs": [
        {
          "internalType": "uint256",
          "name": "",
          "type": "uint256"
        }
      ],
      "stateMutability": "view",
      "type": "function"
    },
    {
      "inputs": [
        {
          "internalType": "address[]",
          "name": "accounts",
          "type": "address[]"
        },
        {
          "internalType": "uint256[]",
          "name": "ids",
          "type": "uint256[]"
        }
      ],
      "name": "balanceOfBatch",
      "outputs": [
        {
          "internalType": "uint256[]",
          "name": "",
          "type": "uint256[]"
        }
      ],
      "stateMutability": "view",
      "type": "function"
    },
    {
      "inputs": [],
      "name": "baseUri",
      "outputs": [
        {
          "internalType": "string",
          "name": "",
          "type": "string"
        }
      ],
      "stateMutability": "view",
      "type": "function"
    },
    {
      "inputs": [
        {
          "internalType": "address",
          "name": "account",
          "type": "address"
        },
        {
          "internalType": "address",
          "name": "operator",
          "type": "address"
        }
      ],
      "name": "isApprovedForAll",
      "outputs": [
        {
          "internalType": "bool",
          "name": "",
          "type": "bool"
        }
      ],
      "stateMutability": "view",
      "type": "function"
    },
    {
      "inputs": [],
      "name": "mintEndTime",
      "outputs": [
        {
          "internalType": "uint256",
          "name": "",
          "type": "uint256"
        }
      ],
      "stateMutability": "view",
      "type": "function"
    },
    {
      "inputs": [],
      "name": "mintPrice",
      "outputs": [
        {
          "internalType": "uint256",
          "name": "",
          "type": "uint256"
        }
      ],
      "stateMutability": "view",
      "type": "function"
    },
    {
      "inputs": [],
      "name": "name",
      "outputs": [
        {
          "internalType": "string",
          "name": "",
          "type": "string"
        }
      ],
      "stateMutability": "view",
      "type": "function"
    },
    {
      "inputs": [],
      "name": "owner",
      "outputs": [
        {
          "internalType": "address",
          "name": "",
          "type": "address"
        }
      ],
      "stateMutability": "view",
      "type": "function"
    },
    {
      "inputs": [],
      "name": "pause",
      "outputs": [],
      "stateMutability": "nonpayable",
      "type": "function"
    },
    {
      "inputs": [],
      "name": "paused",
      "outputs": [
        {
          "internalType": "bool",
          "name": "",
          "type": "bool"
        }
      ],
      "stateMutability": "view",
      "type": "function"
    },
    {
      "inputs": [],
      "name": "renounceOwnership",
      "outputs": [],
      "stateMutability": "nonpayable",
      "type": "function"
    },
    {
      "inputs": [
        {
          "internalType": "address",
          "name": "from",
          "type": "address"
        },
        {
          "internalType": "address",
          "name": "to",
          "type": "address"
        },
        {
          "internalType": "uint256[]",
          "name": "ids",
          "type": "uint256[]"
        },
        {
          "internalType": "uint256[]",
          "name": "amounts",
          "type": "uint256[]"
        },
        {
          "internalType": "bytes",
          "name": "data",
          "type": "bytes"
        }
      ],
      "name": "safeBatchTransferFrom",
      "outputs": [],
      "stateMutability": "nonpayable",
      "type": "function"
    },
    {
      "inputs": [
        {
          "internalType": "address",
          "name": "from",
          "type": "address"
        },
        {
          "internalType": "address",
          "name": "to",
          "type": "address"
        },
        {
          "internalType": "uint256",
          "name": "id",
          "type": "uint256"
        },
        {
          "internalType": "uint256",
          "name": "amount",
          "type": "uint256"
        },
        {
          "internalType": "bytes",
          "name": "data",
          "type": "bytes"
        }
      ],
      "name": "safeTransferFrom",
      "outputs": [],
      "stateMutability": "nonpayable",
      "type": "function"
    },
    {
      "inputs": [
        {
          "internalType": "address",
          "name": "operator",
          "type": "address"
        },
        {
          "internalType": "bool",
          "name": "approved",
          "type": "bool"
        }
      ],
      "name": "setApprovalForAll",
      "outputs": [],
      "stateMutability": "nonpayable",
      "type": "function"
    },
    {
      "inputs": [
        {
          "internalType": "bytes4",
          "name": "interfaceId",
          "type": "bytes4"
        }
      ],
      "name": "supportsInterface",
      "outputs": [
        {
          "internalType": "bool",
          "name": "",
          "type": "bool"
        }
      ],
      "stateMutability": "view",
      "type": "function"
    },
    {
      "inputs": [],
      "name": "symbol",
      "outputs": [
        {
          "internalType": "string",
          "name": "",
          "type": "string"
        }
      ],
      "stateMutability": "view",
      "type": "function"
    },
    {
      "inputs": [],
      "name": "totalSupply",
      "outputs": [
        {
          "internalType": "uint256",
          "name": "",
          "type": "uint256"
        }
      ],
      "stateMutability": "view",
      "type": "function"
    },
    {
      "inputs": [
        {
          "internalType": "address",
          "name": "newOwner",
          "type": "address"
        }
      ],
      "name": "transferOwnership",
      "outputs": [],
      "stateMutability": "nonpayable",
      "type": "function"
    },
    {
      "inputs": [],
      "name": "unpause",
      "outputs": [],
      "stateMutability": "nonpayable",
      "type": "function"
    },
    {
      "inputs": [
        {
          "internalType": "string",
          "name": "newBaseUri",
          "type": "string"
        }
      ],
      "name": "updateBaseURI",
      "outputs": [],
      "stateMutability": "nonpayable",
      "type": "function"
    },
    {
      "inputs": [
        {
          "internalType": "uint256",
          "name": "newMintEndTime",
          "type": "uint256"
        }
      ],
      "name": "updateEndTime",
      "outputs": [],
      "stateMutability": "nonpayable",
      "type": "function"
    },
    {
      "inputs": [
        {
          "internalType": "uint256",
          "name": "id",
          "type": "uint256"
        }
      ],
      "name": "uri",
      "outputs": [
        {
          "internalType": "string",
          "name": "",
          "type": "string"
        }
      ],
      "stateMutability": "view",
      "type": "function"
    },
    {
      "inputs": [
        {
          "internalType": "uint256",
          "name": "newMintPrice",
          "type": "uint256"
        }
      ],
      "name": "updateMintPrice",
      "outputs": [],
      "stateMutability": "nonpayable",
      "type": "function"
    },
    {
      "inputs": [
        {
          "internalType": "uint256",
          "name": "quantity",
          "type": "uint256"
        }
      ],
      "name": "mint",
      "outputs": [],
      "stateMutability": "payable",
      "type": "function"
    },
    {
      "inputs": [
        {
          "internalType": "address[]",
          "name": "account",
          "type": "address[]"
        },
        {
          "internalType": "uint256[]",
          "name": "quantity",
          "type": "uint256[]"
        }
      ],
      "name": "airDrop",
      "outputs": [],
      "stateMutability": "nonpayable",
      "type": "function"
    },
    {
      "inputs": [
        {
          "internalType": "uint256",
          "name": "batchSize",
          "type": "uint256"
        }
      ],
      "name": "mintRemainingToOwner",
      "outputs": [],
      "stateMutability": "nonpayable",
      "type": "function"
    },
    {
      "inputs": [
        {
          "internalType": "address payable",
          "name": "account",
          "type": "address"
        },
        {
          "internalType": "uint256",
          "name": "amount",
          "type": "uint256"
        }
      ],
      "name": "withdraw",
      "outputs": [],
      "stateMutability": "nonpayable",
      "type": "function"
    },
    {
      "inputs": [],
      "name": "balanceOfContract",
      "outputs": [
        {
          "internalType": "uint256",
          "name": "",
          "type": "uint256"
        }
      ],
      "stateMutability": "view",
      "type": "function"
    }
  ],
  "bytecode": "0x60806040523480156200001157600080fd5b5060405162003a4238038062003a42833981016040819052620000349162000343565b6040805160208101909152600081526103e790620000528162000142565b506200005e336200015b565b6003805460ff60a01b1916905560016004819055600582905562000084908290620003e3565b6001600160401b03811115620000aa57634e487b7160e01b600052604160045260246000fd5b604051908082528060200260200182016040528015620000d4578160200160208202803683370190505b508051620000eb91600691602090910190620001ad565b5050845162000102906007906020880190620001fd565b50835162000118906008906020870190620001fd565b5082516200012e90600c906020860190620001fd565b50600991909155600b55506200045b915050565b805162000157906002906020840190620001fd565b5050565b600380546001600160a01b038381166001600160a01b0319831681179093556040519116919082907f8be0079c531659141344cd1fd0a4f28419497f9722a3daafe3b4186f6b6457e090600090a35050565b828054828255906000526020600020908101928215620001eb579160200282015b82811115620001eb578251825591602001919060010190620001ce565b50620001f992915062000279565b5090565b8280546200020b9062000408565b90600052602060002090601f0160209004810192826200022f5760008555620001eb565b82601f106200024a57805160ff1916838001178555620001eb565b82800160010185558215620001eb5791820182811115620001eb578251825591602001919060010190620001ce565b5b80821115620001f957600081556001016200027a565b600082601f830112620002a1578081fd5b81516001600160401b0380821115620002be57620002be62000445565b604051601f8301601f19908116603f01168101908282118183101715620002e957620002e962000445565b8160405283815260209250868385880101111562000305578485fd5b8491505b8382101562000328578582018301518183018401529082019062000309565b838211156200033957848385830101525b9695505050505050565b600080600080600060a086880312156200035b578081fd5b85516001600160401b038082111562000372578283fd5b6200038089838a0162000290565b9650602088015191508082111562000396578283fd5b620003a489838a0162000290565b95506040880151915080821115620003ba578283fd5b50620003c98882890162000290565b606088015160809098015196999598509695949350505050565b600082198211156200040357634e487b7160e01b81526011600452602481fd5b500190565b6002810460018216806200041d57607f821691505b602082108114156200043f57634e487b7160e01b600052602260045260246000fd5b50919050565b634e487b7160e01b600052604160045260246000fd5b6135d7806200046b6000396000f3fe6080604052600436106101b55760003560e01c8063717a002b116100ec578063a0712d681161008a578063e985e9c511610064578063e985e9c51461047c578063f242432a146104c5578063f2fde38b146104e5578063f3fef3a314610505576101b5565b8063a0712d6814610436578063a22cb46514610449578063e6c7c45614610469576101b5565b80638da5cb5b116100c65780638da5cb5b146103c4578063931688cb146103ec57806395d89b411461040c5780639abc832014610421576101b5565b8063717a002b146103795780638456cb591461038f5780638c9f9c6f146103a4576101b5565b80633f4ba83a1161015957806365216a411161013357806365216a411461030e5780636817c76c1461032e5780636ab3846b14610344578063715018a614610364576101b5565b80633f4ba83a146102b75780634e1273f4146102cc5780635c975abb146102f9576101b5565b806306fdde031161019557806306fdde031461023f5780630e89341c1461026157806318160ddd146102815780632eb2c2d614610297576101b5565b8062728e46146101ba578062fdd58e146101dc57806301ffc9a71461020f575b600080fd5b3480156101c657600080fd5b506101da6101d5366004613085565b610525565b005b3480156101e857600080fd5b506101fc6101f7366004612ec1565b610692565b6040519081526020015b60405180910390f35b34801561021b57600080fd5b5061022f61022a366004613007565b610736565b6040519015158152602001610206565b34801561024b57600080fd5b506102546107d5565b60405161020691906132f2565b34801561026d57600080fd5b5061025461027c366004613085565b610863565b34801561028d57600080fd5b506101fc600a5481565b3480156102a357600080fd5b506101da6102b2366004612d7f565b610897565b3480156102c357600080fd5b506101da610939565b3480156102d857600080fd5b506102ec6102e7366004612f3c565b61099d565b60405161020691906132b1565b34801561030557600080fd5b5061022f610b13565b34801561031a57600080fd5b506101da610329366004612ed3565b610b35565b34801561033a57600080fd5b506101fc600b5481565b34801561035057600080fd5b506101da61035f366004613085565b610e76565b34801561037057600080fd5b506101da611030565b34801561038557600080fd5b506101fc60095481565b34801561039b57600080fd5b506101da611094565b3480156103b057600080fd5b506101da6103bf366004613085565b6110f6565b3480156103d057600080fd5b506003546040516001600160a01b039091168152602001610206565b3480156103f857600080fd5b506101da61040736600461303f565b611386565b34801561041857600080fd5b50610254611502565b34801561042d57600080fd5b5061025461150f565b6101da610444366004613085565b61151c565b34801561045557600080fd5b506101da610464366004612e90565b611810565b34801561047557600080fd5b50476101fc565b34801561048857600080fd5b5061022f610497366004612d47565b6001600160a01b03918216600090815260016020908152604080832093909416825291909152205460ff1690565b3480156104d157600080fd5b506101da6104e0366004612e29565b61181b565b3480156104f157600080fd5b506101da610500366004612d00565b6118b6565b34801561051157600080fd5b506101da610520366004612d1c565b611998565b6003546001600160a01b031633146105845760405162461bcd60e51b815260206004820181905260248201527f4f776e61626c653a2063616c6c6572206973206e6f7420746865206f776e657260448201526064015b60405180910390fd5b61058c610b13565b156105cc5760405162461bcd60e51b815260206004820152601060248201526f14185d5cd8589b194e881c185d5cd95960821b604482015260640161057b565b60408051602081018390520160405160208183030381529060405280519060200120600b5460405160200161060391815260200190565b60405160208183030381529060405280519060200120141561068d5760405162461bcd60e51b815260206004820152603a60248201527f576f6f6647616e673a2043757272656e7420737461746520697320616c72656160448201527f6479207768617420796f7520686176652073656c65637465642e000000000000606482015260840161057b565b600b55565b60006001600160a01b0383166107105760405162461bcd60e51b815260206004820152602b60248201527f455243313135353a2062616c616e636520717565727920666f7220746865207a60448201527f65726f2061646472657373000000000000000000000000000000000000000000606482015260840161057b565b506000908152602081815260408083206001600160a01b03949094168352929052205490565b60006001600160e01b031982167fd9b67a2600000000000000000000000000000000000000000000000000000000148061079957506001600160e01b031982167f0e89341c00000000000000000000000000000000000000000000000000000000145b806107cd57507f01ffc9a7000000000000000000000000000000000000000000000000000000006001600160e01b03198316145b90505b919050565b600780546107e2906133d2565b80601f016020809104026020016040519081016040528092919081815260200182805461080e906133d2565b801561085b5780601f106108305761010080835404028352916020019161085b565b820191906000526020600020905b81548152906001019060200180831161083e57829003601f168201915b505050505081565b6060600c61087083611bc3565b6040516020016108819291906131c3565b6040516020818303038152906040529050919050565b6001600160a01b0385163314806108b357506108b38533610497565b6109255760405162461bcd60e51b815260206004820152603260248201527f455243313135353a207472616e736665722063616c6c6572206973206e6f742060448201527f6f776e6572206e6f7220617070726f7665640000000000000000000000000000606482015260840161057b565b6109328585858585611d1a565b5050505050565b6003546001600160a01b031633146109935760405162461bcd60e51b815260206004820181905260248201527f4f776e61626c653a2063616c6c6572206973206e6f7420746865206f776e6572604482015260640161057b565b61099b611fca565b565b60608151835114610a165760405162461bcd60e51b815260206004820152602960248201527f455243313135353a206163636f756e747320616e6420696473206c656e67746860448201527f206d69736d617463680000000000000000000000000000000000000000000000606482015260840161057b565b6000835167ffffffffffffffff811115610a4057634e487b7160e01b600052604160045260246000fd5b604051908082528060200260200182016040528015610a69578160200160208202803683370190505b50905060005b8451811015610b0b57610ad0858281518110610a9b57634e487b7160e01b600052603260045260246000fd5b6020026020010151858381518110610ac357634e487b7160e01b600052603260045260246000fd5b6020026020010151610692565b828281518110610af057634e487b7160e01b600052603260045260246000fd5b6020908102919091010152610b048161345c565b9050610a6f565b509392505050565b60035474010000000000000000000000000000000000000000900460ff165b90565b6003546001600160a01b03163314610b8f5760405162461bcd60e51b815260206004820181905260248201527f4f776e61626c653a2063616c6c6572206973206e6f7420746865206f776e6572604482015260640161057b565b610b97610b13565b15610bd75760405162461bcd60e51b815260206004820152601060248201526f14185d5cd8589b194e881c185d5cd95960821b604482015260640161057b565b828114610c4b5760405162461bcd60e51b8152602060048201526024808201527f576f6f6647616e673a20496e636f727265637420706172616d65746572206c6560448201527f6e67746800000000000000000000000000000000000000000000000000000000606482015260840161057b565b600a5460005b61ffff8116851115610e6c57600a54610c6c906103e7613374565b84848361ffff16818110610c9057634e487b7160e01b600052603260045260246000fd5b905060200201351115610d0b5760405162461bcd60e51b815260206004820152602f60248201527f576f6f6647616e673a20416d6f756e74206973206d6f7265207468616e20726560448201527f6d616e696e696e6720746f6b656e730000000000000000000000000000000000606482015260840161057b565b60005b84848361ffff16818110610d3257634e487b7160e01b600052603260045260246000fd5b905060200201358161ffff161015610e5957600a546103e71015610da35760405162461bcd60e51b815260206004820152602260248201527f576f6f6647616e673a204d6178696d756d20737570706c792069732065786365604482015261195960f21b606482015260840161057b565b6000610dad612086565b905083610db98161345c565b945050610e1388888561ffff16818110610de357634e487b7160e01b600052603260045260246000fd5b9050602002016020810190610df89190612d00565b82600160ff16604051806020016040528060008152506120bd565b6040518181527f77848b9796c4f2c7aeaccede78890d970b78871f4dd6437d42786f2c540d4bb09060200160405180910390a15080610e518161343a565b915050610d0e565b5080610e648161343a565b915050610c51565b50600a5550505050565b6003546001600160a01b03163314610ed05760405162461bcd60e51b815260206004820181905260248201527f4f776e61626c653a2063616c6c6572206973206e6f7420746865206f776e6572604482015260640161057b565b610ed8610b13565b15610f185760405162461bcd60e51b815260206004820152601060248201526f14185d5cd8589b194e881c185d5cd95960821b604482015260640161057b565b60408051602081018390520160405160208183030381529060405280519060200120600954604051602001610f4f91815260200190565b604051602081830303815290604052805190602001201415610fd95760405162461bcd60e51b815260206004820152603a60248201527f576f6f6647616e673a2043757272656e7420737461746520697320616c72656160448201527f6479207768617420796f7520686176652073656c65637465642e000000000000606482015260840161057b565b60095442111561102b5760405162461bcd60e51b815260206004820152601f60248201527f576f6f6647616e673a204d696e742070726f6365737320697320656e64656400604482015260640161057b565b600955565b6003546001600160a01b0316331461108a5760405162461bcd60e51b815260206004820181905260248201527f4f776e61626c653a2063616c6c6572206973206e6f7420746865206f776e6572604482015260640161057b565b61099b60006121fc565b6003546001600160a01b031633146110ee5760405162461bcd60e51b815260206004820181905260248201527f4f776e61626c653a2063616c6c6572206973206e6f7420746865206f776e6572604482015260640161057b565b61099b612266565b6003546001600160a01b031633146111505760405162461bcd60e51b815260206004820181905260248201527f4f776e61626c653a2063616c6c6572206973206e6f7420746865206f776e6572604482015260640161057b565b611158610b13565b156111985760405162461bcd60e51b815260206004820152601060248201526f14185d5cd8589b194e881c185d5cd95960821b604482015260640161057b565b6009544210156112105760405162461bcd60e51b815260206004820152602560248201527f576f6f6647616e673a204d696e742070726f6365737320697320696e2070726f60448201527f6772657373000000000000000000000000000000000000000000000000000000606482015260840161057b565b600a546103e7101561126f5760405162461bcd60e51b815260206004820152602260248201527f576f6f6647616e673a204d6178696d756d20737570706c792069732065786365604482015261195960f21b606482015260840161057b565b600a5461127e906103e7613374565b8111156112f35760405162461bcd60e51b815260206004820152602f60248201527f576f6f6647616e673a20416d6f756e74206973206d6f7265207468616e20726560448201527f6d616e696e696e6720746f6b656e730000000000000000000000000000000000606482015260840161057b565b600a5460005b8281101561137f57600061130b612315565b9050826113178161345c565b9350506113393382600160ff16604051806020016040528060008152506120bd565b6040518181527f77848b9796c4f2c7aeaccede78890d970b78871f4dd6437d42786f2c540d4bb09060200160405180910390a150806113778161345c565b9150506112f9565b50600a5550565b6003546001600160a01b031633146113e05760405162461bcd60e51b815260206004820181905260248201527f4f776e61626c653a2063616c6c6572206973206e6f7420746865206f776e6572604482015260640161057b565b6113e8610b13565b156114285760405162461bcd60e51b815260206004820152601060248201526f14185d5cd8589b194e881c185d5cd95960821b604482015260640161057b565b80604051602001611439919061319b565b60405160208183030381529060405280519060200120600c60405160200161146191906131b7565b6040516020818303038152906040528051906020012014156114eb5760405162461bcd60e51b815260206004820152603a60248201527f576f6f6647616e673a2043757272656e7420737461746520697320616c72656160448201527f6479207768617420796f7520686176652073656c65637465642e000000000000606482015260840161057b565b80516114fe90600c906020840190612b28565b5050565b600880546107e2906133d2565b600c80546107e2906133d2565b611524610b13565b156115645760405162461bcd60e51b815260206004820152601060248201526f14185d5cd8589b194e881c185d5cd95960821b604482015260640161057b565b600260045414156115b75760405162461bcd60e51b815260206004820152601f60248201527f5265656e7472616e637947756172643a207265656e7472616e742063616c6c00604482015260640161057b565b6002600455600a546103e7101561161b5760405162461bcd60e51b815260206004820152602260248201527f576f6f6647616e673a204d6178696d756d20737570706c792069732065786365604482015261195960f21b606482015260840161057b565b60095442111561166d5760405162461bcd60e51b815260206004820152601f60248201527f576f6f6647616e673a204d696e742070726f6365737320697320656e64656400604482015260640161057b565b600a5461167c906103e7613374565b8111156116f15760405162461bcd60e51b815260206004820152602f60248201527f576f6f6647616e673a20416d6f756e74206973206d6f7265207468616e20726560448201527f6d616e696e696e6720746f6b656e730000000000000000000000000000000000606482015260840161057b565b80600b546116ff9190613355565b3410156117745760405162461bcd60e51b815260206004820152602360248201527f576f6f6647616e673a20496e73756666696369656e742045544820737570706c60448201527f6965640000000000000000000000000000000000000000000000000000000000606482015260840161057b565b600a5460005b828161ffff161015611804576000611790612086565b90508261179c8161345c565b9350506117be3382600160ff16604051806020016040528060008152506120bd565b6040518181527f08e8a19f3ede7a56d7f92312271fb6b5d441c6539beebc6e05655e8e0bd26e3a9060200160405180910390a150806117fc8161343a565b91505061177a565b50600a55506001600455565b6114fe338383612325565b6001600160a01b03851633148061183757506118378533610497565b6118a95760405162461bcd60e51b815260206004820152602960248201527f455243313135353a2063616c6c6572206973206e6f74206f776e6572206e6f7260448201527f20617070726f7665640000000000000000000000000000000000000000000000606482015260840161057b565b610932858585858561241a565b6003546001600160a01b031633146119105760405162461bcd60e51b815260206004820181905260248201527f4f776e61626c653a2063616c6c6572206973206e6f7420746865206f776e6572604482015260640161057b565b6001600160a01b03811661198c5760405162461bcd60e51b815260206004820152602660248201527f4f776e61626c653a206e6577206f776e657220697320746865207a65726f206160448201527f6464726573730000000000000000000000000000000000000000000000000000606482015260840161057b565b611995816121fc565b50565b6003546001600160a01b031633146119f25760405162461bcd60e51b815260206004820181905260248201527f4f776e61626c653a2063616c6c6572206973206e6f7420746865206f776e6572604482015260640161057b565b6119fa610b13565b15611a3a5760405162461bcd60e51b815260206004820152601060248201526f14185d5cd8589b194e881c185d5cd95960821b604482015260640161057b565b60026004541415611a8d5760405162461bcd60e51b815260206004820152601f60248201527f5265656e7472616e637947756172643a207265656e7472616e742063616c6c00604482015260640161057b565b60026004556001600160a01b038216611b0e5760405162461bcd60e51b815260206004820152602960248201527f576f6f6647616e673a2043616e6e6f7420776974686472617720746f205a657260448201527f6f20416464726573730000000000000000000000000000000000000000000000606482015260840161057b565b804711611b835760405162461bcd60e51b815260206004820152602860248201527f576f6f6647616e673a20696e73756666696369656e7420657468657220696e2060448201527f636f6e7472616374000000000000000000000000000000000000000000000000606482015260840161057b565b6040516001600160a01b0383169082156108fc029083906000818181858888f19350505050158015611bb9573d6000803e3d6000fd5b5050600160045550565b606081611c04575060408051808201909152600181527f300000000000000000000000000000000000000000000000000000000000000060208201526107d0565b8160005b8115611c2e5780611c188161345c565b9150611c279050600a83613341565b9150611c08565b60008167ffffffffffffffff811115611c5757634e487b7160e01b600052604160045260246000fd5b6040519080825280601f01601f191660200182016040528015611c81576020820181803683370190505b5090505b8415611d1257611c96600183613374565b9150611ca3600a86613477565b611cae906030613329565b60f81b818381518110611cd157634e487b7160e01b600052603260045260246000fd5b60200101907effffffffffffffffffffffffffffffffffffffffffffffffffffffffffffff1916908160001a905350611d0b600a86613341565b9450611c85565b949350505050565b8151835114611d915760405162461bcd60e51b815260206004820152602860248201527f455243313135353a2069647320616e6420616d6f756e7473206c656e6774682060448201527f6d69736d61746368000000000000000000000000000000000000000000000000606482015260840161057b565b6001600160a01b038416611df55760405162461bcd60e51b815260206004820152602560248201527f455243313135353a207472616e7366657220746f20746865207a65726f206164604482015264647265737360d81b606482015260840161057b565b33611e048187878787876125e6565b60005b8451811015611f5c576000858281518110611e3257634e487b7160e01b600052603260045260246000fd5b602002602001015190506000858381518110611e5e57634e487b7160e01b600052603260045260246000fd5b602090810291909101810151600084815280835260408082206001600160a01b038e168352909352919091205490915081811015611f045760405162461bcd60e51b815260206004820152602a60248201527f455243313135353a20696e73756666696369656e742062616c616e636520666f60448201527f72207472616e7366657200000000000000000000000000000000000000000000606482015260840161057b565b6000838152602081815260408083206001600160a01b038e8116855292528083208585039055908b16825281208054849290611f41908490613329565b9250508190555050505080611f559061345c565b9050611e07565b50846001600160a01b0316866001600160a01b0316826001600160a01b03167f4a39dc06d4c0dbc64b70af90fd698a233a518aa5d07e595d983b8c0526c8f7fb8787604051611fac9291906132c4565b60405180910390a4611fc2818787878787612633565b505050505050565b611fd2610b13565b61201e5760405162461bcd60e51b815260206004820152601460248201527f5061757361626c653a206e6f7420706175736564000000000000000000000000604482015260640161057b565b600380547fffffffffffffffffffffff00ffffffffffffffffffffffffffffffffffffffff1690557f5db9ee0a495bf2e6ff9c91a7834c1ba4fdd244a5e8aa4e537bd38aeae4b073aa335b6040516001600160a01b03909116815260200160405180910390a1565b6000806005546120946127fd565b61209e9190613477565b6120a9906001613329565b905060006120b6826128fb565b9250505090565b6001600160a01b0384166121395760405162461bcd60e51b815260206004820152602160248201527f455243313135353a206d696e7420746f20746865207a65726f2061646472657360448201527f7300000000000000000000000000000000000000000000000000000000000000606482015260840161057b565b33600061214585612976565b9050600061215285612976565b9050612163836000898585896125e6565b6000868152602081815260408083206001600160a01b038b16845290915281208054879290612193908490613329565b909155505060408051878152602081018790526001600160a01b03808a1692600092918716917fc3d58168c5ae7397731d063d5bbf3d657854427343f4c083240f7aacaa2d0f62910160405180910390a46121f3836000898989896129cf565b50505050505050565b600380546001600160a01b038381167fffffffffffffffffffffffff0000000000000000000000000000000000000000831681179093556040519116919082907f8be0079c531659141344cd1fd0a4f28419497f9722a3daafe3b4186f6b6457e090600090a35050565b61226e610b13565b156122ae5760405162461bcd60e51b815260206004820152601060248201526f14185d5cd8589b194e881c185d5cd95960821b604482015260640161057b565b600380547fffffffffffffffffffffff00ffffffffffffffffffffffffffffffffffffffff16740100000000000000000000000000000000000000001790557f62e78cea01bee320cd4e420270b5ea74000d11b0c9f74754ebdbfc544b05a2586120693390565b600554600090816120b6826128fb565b816001600160a01b0316836001600160a01b031614156123ad5760405162461bcd60e51b815260206004820152602960248201527f455243313135353a2073657474696e6720617070726f76616c2073746174757360448201527f20666f722073656c660000000000000000000000000000000000000000000000606482015260840161057b565b6001600160a01b03838116600081815260016020908152604080832094871680845294825291829020805460ff191686151590811790915591519182527f17307eab39ab6107e8899845ad3d59bd9653f200f220920489ca2b5937696c31910160405180910390a3505050565b6001600160a01b03841661247e5760405162461bcd60e51b815260206004820152602560248201527f455243313135353a207472616e7366657220746f20746865207a65726f206164604482015264647265737360d81b606482015260840161057b565b33600061248a85612976565b9050600061249785612976565b90506124a78389898585896125e6565b6000868152602081815260408083206001600160a01b038c1684529091529020548581101561253e5760405162461bcd60e51b815260206004820152602a60248201527f455243313135353a20696e73756666696369656e742062616c616e636520666f60448201527f72207472616e7366657200000000000000000000000000000000000000000000606482015260840161057b565b6000878152602081815260408083206001600160a01b038d8116855292528083208985039055908a1682528120805488929061257b908490613329565b909155505060408051888152602081018890526001600160a01b03808b16928c821692918816917fc3d58168c5ae7397731d063d5bbf3d657854427343f4c083240f7aacaa2d0f62910160405180910390a46125db848a8a8a8a8a6129cf565b505050505050505050565b6125ee610b13565b1561262e5760405162461bcd60e51b815260206004820152601060248201526f14185d5cd8589b194e881c185d5cd95960821b604482015260640161057b565b611fc2565b6001600160a01b0384163b15611fc25760405163bc197c8160e01b81526001600160a01b0385169063bc197c81906126779089908990889088908890600401613210565b602060405180830381600087803b15801561269157600080fd5b505af19250505080156126c1575060408051601f3d908101601f191682019092526126be91810190613023565b60015b612777576126cd6134cd565b806308c379a0141561270757506126e26134e4565b806126ed5750612709565b8060405162461bcd60e51b815260040161057b91906132f2565b505b60405162461bcd60e51b815260206004820152603460248201527f455243313135353a207472616e7366657220746f206e6f6e204552433131353560448201527f526563656976657220696d706c656d656e746572000000000000000000000000606482015260840161057b565b6001600160e01b0319811663bc197c8160e01b146121f35760405162461bcd60e51b815260206004820152602860248201527f455243313135353a204552433131353552656365697665722072656a6563746560448201527f6420746f6b656e73000000000000000000000000000000000000000000000000606482015260840161057b565b6005546040516bffffffffffffffffffffffff193360601b1660208201526000918291439042906034016040516020818303038152906040528051906020012060001c61284a9190613341565b6040516bffffffffffffffffffffffff194160601b166020820152459042906034016040516020818303038152906040528051906020012060001c61288f9190613341565b6128994442613329565b6128a39190613329565b6128ad9190613329565b6128b79190613329565b6128c19190613329565b6128cb9190613329565b6040516020016128dd91815260200190565b60408051601f19818403018152919052805160209091012091505090565b60008061290783612aef565b9050600554831461295a57600061291f600554612aef565b905061292b8482613374565b6006858154811061294c57634e487b7160e01b600052603260045260246000fd5b600091825260209091200155505b6005805490600061296a836133bb565b90915550909392505050565b604080516001808252818301909252606091600091906020808301908036833701905050905082816000815181106129be57634e487b7160e01b600052603260045260246000fd5b602090810291909101015292915050565b6001600160a01b0384163b15611fc25760405163f23a6e6160e01b81526001600160a01b0385169063f23a6e6190612a13908990899088908890889060040161326e565b602060405180830381600087803b158015612a2d57600080fd5b505af1925050508015612a5d575060408051601f3d908101601f19168201909252612a5a91810190613023565b60015b612a69576126cd6134cd565b6001600160e01b0319811663f23a6e6160e01b146121f35760405162461bcd60e51b815260206004820152602860248201527f455243313135353a204552433131353552656365697665722072656a6563746560448201527f6420746f6b656e73000000000000000000000000000000000000000000000000606482015260840161057b565b60008160068381548110612b1357634e487b7160e01b600052603260045260246000fd5b90600052602060002001546107cd9190613329565b828054612b34906133d2565b90600052602060002090601f016020900481019282612b565760008555612b9c565b82601f10612b6f57805160ff1916838001178555612b9c565b82800160010185558215612b9c579182015b82811115612b9c578251825591602001919060010190612b81565b50612ba8929150612bac565b5090565b5b80821115612ba85760008155600101612bad565b600067ffffffffffffffff831115612bdb57612bdb6134b7565b604051612bf2601f8501601f19166020018261340d565b809150838152848484011115612c0757600080fd5b83836020830137600060208583010152509392505050565b60008083601f840112612c30578182fd5b50813567ffffffffffffffff811115612c47578182fd5b6020830191508360208083028501011115612c6157600080fd5b9250929050565b600082601f830112612c78578081fd5b81356020612c8582613305565b604051612c92828261340d565b838152828101915085830183850287018401881015612caf578586fd5b855b85811015612ccd57813584529284019290840190600101612cb1565b5090979650505050505050565b600082601f830112612cea578081fd5b612cf983833560208501612bc1565b9392505050565b600060208284031215612d11578081fd5b8135612cf981613576565b60008060408385031215612d2e578081fd5b8235612d3981613576565b946020939093013593505050565b60008060408385031215612d59578182fd5b8235612d6481613576565b91506020830135612d7481613576565b809150509250929050565b600080600080600060a08688031215612d96578081fd5b8535612da181613576565b94506020860135612db181613576565b9350604086013567ffffffffffffffff80821115612dcd578283fd5b612dd989838a01612c68565b94506060880135915080821115612dee578283fd5b612dfa89838a01612c68565b93506080880135915080821115612e0f578283fd5b50612e1c88828901612cda565b9150509295509295909350565b600080600080600060a08688031215612e40578081fd5b8535612e4b81613576565b94506020860135612e5b81613576565b93506040860135925060608601359150608086013567ffffffffffffffff811115612e84578182fd5b612e1c88828901612cda565b60008060408385031215612ea2578182fd5b8235612ead81613576565b915060208301358015158114612d74578182fd5b60008060408385031215612d2e578182fd5b60008060008060408587031215612ee8578182fd5b843567ffffffffffffffff80821115612eff578384fd5b612f0b88838901612c1f565b90965094506020870135915080821115612f23578384fd5b50612f3087828801612c1f565b95989497509550505050565b60008060408385031215612f4e578182fd5b823567ffffffffffffffff80821115612f65578384fd5b818501915085601f830112612f78578384fd5b81356020612f8582613305565b604051612f92828261340d565b8381528281019150858301838502870184018b1015612faf578889fd5b8896505b84871015612fda578035612fc681613576565b835260019690960195918301918301612fb3565b5096505086013592505080821115612ff0578283fd5b50612ffd85828601612c68565b9150509250929050565b600060208284031215613018578081fd5b8135612cf98161358b565b600060208284031215613034578081fd5b8151612cf98161358b565b600060208284031215613050578081fd5b813567ffffffffffffffff811115613066578182fd5b8201601f81018413613076578182fd5b611d1284823560208401612bc1565b600060208284031215613096578081fd5b5035919050565b6000815180845260208085019450808401835b838110156130cc578151875295820195908201906001016130b0565b509495945050505050565b600081518084526130ef81602086016020860161338b565b601f01601f19169290920160200192915050565b80546000906002810460018083168061311d57607f831692505b602080841082141561313d57634e487b7160e01b86526022600452602486fd5b81801561315157600181146131625761318f565b60ff1986168952848901965061318f565b60008881526020902060005b868110156131875781548b82015290850190830161316e565b505084890196505b50505050505092915050565b600082516131ad81846020870161338b565b9190910192915050565b6000612cf98284613103565b60006131cf8285613103565b83516131df81836020880161338b565b7f2e6a736f6e0000000000000000000000000000000000000000000000000000009101908152600501949350505050565b60006001600160a01b03808816835280871660208401525060a0604083015261323c60a083018661309d565b828103606084015261324e818661309d565b9050828103608084015261326281856130d7565b98975050505050505050565b60006001600160a01b03808816835280871660208401525084604083015283606083015260a060808301526132a660a08301846130d7565b979650505050505050565b600060208252612cf9602083018461309d565b6000604082526132d7604083018561309d565b82810360208401526132e9818561309d565b95945050505050565b600060208252612cf960208301846130d7565b600067ffffffffffffffff82111561331f5761331f6134b7565b5060209081020190565b6000821982111561333c5761333c61348b565b500190565b600082613350576133506134a1565b500490565b600081600019048311821515161561336f5761336f61348b565b500290565b6000828210156133865761338661348b565b500390565b60005b838110156133a657818101518382015260200161338e565b838111156133b5576000848401525b50505050565b6000816133ca576133ca61348b565b506000190190565b6002810460018216806133e657607f821691505b6020821081141561340757634e487b7160e01b600052602260045260246000fd5b50919050565b601f8201601f1916810167ffffffffffffffff81118282101715613433576134336134b7565b6040525050565b600061ffff808316818114156134525761345261348b565b6001019392505050565b60006000198214156134705761347061348b565b5060010190565b600082613486576134866134a1565b500690565b634e487b7160e01b600052601160045260246000fd5b634e487b7160e01b600052601260045260246000fd5b634e487b7160e01b600052604160045260246000fd5b600060033d1115610b3257600481823e5160e01c90565b600060443d10156134f457610b32565b6040516003193d81016004833e81513d67ffffffffffffffff8160248401118184111715613526575050505050610b32565b828501915081518181111561354057505050505050610b32565b843d870101602082850101111561355c57505050505050610b32565b61356b6020828601018761340d565b509094505050505090565b6001600160a01b038116811461199557600080fd5b6001600160e01b03198116811461199557600080fdfea26469706673582212205736a015323ae37b720bdd73646368375e7b27399c8a67ac555aa1e462a17c8664736f6c63430008020033",
  "immutableReferences": {},
  "source": "// SPDX-License-Identifier: MIT\n// Creator: The Systango Team\npragma solidity ^0.8.2;\n\nimport \"@openzeppelin/contracts/utils/Strings.sol\";\nimport \"./AbstractWoofGang.sol\";\n\ncontract WoofGang is AbstractWoofGang {\n    \n    // Name of the token\n    string public name;\n\n    // Symbol of the token\n    string public symbol;\n    \n    // Set the mint end time\n    uint256 public mintEndTime;\n\n    //Total supply which will increase after mint and airdrops\n    uint256 public totalSupply;\n\n    // Mint Price for token id \n    uint256 public mintPrice;\n\n    //Base token Uri\n    string public baseUri;\n\n    // As token is an NFT so the minting amount will always be one\n    uint8 constant NFT_AMOUNT = 1;\n\n    // Maximum supply which we are using\n    uint16 constant MAX_SUPPLY = 999;    \n\n    // Zero Address\n    address constant ZERO_ADDRESS = address(0);\n\n\n    constructor(\n        string memory nameOfContract, \n        string memory symbolOfContract,\n        string memory uriOfContract,\n        uint256 mintEndTimeOfContract,\n        uint256 mintPriceOfContract\n        \n    ) ERC1155(\"\") Random(MAX_SUPPLY) {\n        name = nameOfContract;\n        symbol = symbolOfContract;\n        baseUri = uriOfContract;\n        mintEndTime = mintEndTimeOfContract;\n        mintPrice = mintPriceOfContract;\n    }\n\n    /// @dev This is the function to update the Base URI \n    /// @dev Only the owner can call this function\n    /// @param newBaseUri New Base URI \n\n    function updateBaseURI(string memory newBaseUri) external override onlyOwner whenNotPaused \n    {\n        require(keccak256(abi.encodePacked(baseUri)) != keccak256(abi.encodePacked(newBaseUri)) , \"WoofGang: Current state is already what you have selected.\");\n        baseUri = newBaseUri;\n    }\n\n    /// @dev This is the function to update the mint nft end time\n    /// @dev Only the owner can call this function\n    /// @param newMintEndTime Adding updated Timing for Mint NFT \n\n    function updateEndTime(uint256 newMintEndTime) external override onlyOwner whenNotPaused \n    {\n        require(keccak256(abi.encodePacked(mintEndTime)) != keccak256(abi.encodePacked(newMintEndTime)) , \"WoofGang: Current state is already what you have selected.\");\n        require(block.timestamp <= mintEndTime , \"WoofGang: Mint process is ended\");\n        mintEndTime = newMintEndTime;\n    }\n\n    /// @dev The public function for getting the URI string based on token id \n    /// @param id The id of the token whose URI should be get \n\n    function uri(uint id) public view virtual override(ERC1155)  returns (string memory) \n    {\n        return string(abi.encodePacked(baseUri,Strings.toString(id),\".json\"));\n    }\n\n    /// @dev This is the function to update the nft price\n    /// @dev Only the owner can call this function\n    /// @param newMintPrice Adding updated NFT Price \n\n    function updateMintPrice (uint256 newMintPrice) external override onlyOwner whenNotPaused\n    {\n        require(keccak256(abi.encodePacked(mintPrice)) != keccak256(abi.encodePacked(newMintPrice)) , \"WoofGang: Current state is already what you have selected.\");\n        mintPrice = newMintPrice;\n    }\n\n    /// @dev This is the function is used for the minting tokens\n    /// @param quantity `quantity` is the number to mint\n\n    function mint(uint256 quantity) external override payable whenNotPaused nonReentrant\n    {\n        require(MAX_SUPPLY >= totalSupply, \"WoofGang: Maximum supply is exceed\");\n        require(block.timestamp <= mintEndTime , \"WoofGang: Mint process is ended\");\n        require(quantity <= MAX_SUPPLY-totalSupply , \"WoofGang: Amount is more than remanining tokens\");\n        require(msg.value >= (mintPrice)*quantity, \"WoofGang: Insufficient ETH supplied\");\n        uint256 _totalSupply = totalSupply;\n        for(uint16 i=0; i < quantity; i++){\n            uint256 tokenId = _getRandomNFTTokenID();\n            _totalSupply++;\n            _mint(msg.sender, tokenId, NFT_AMOUNT, \"\");            \n            emit newNFTCreated(tokenId);\n        }\n        totalSupply = _totalSupply;\n    }\n\n    /// @dev This function is used for the airdrop tokens to the given account and amount of tokens.\n    /// @dev Only the owner can call this function\n    /// @param account we need to put account address where owner wants to make Airdrop\n\n    function airDrop(address[] calldata account , uint256[] calldata quantity) external override onlyOwner whenNotPaused {\n        require(account.length == quantity.length, \"WoofGang: Incorrect parameter length\");\n        uint256 _totalSupply = totalSupply;\n        for(uint16 i=0; i<account.length; i++){\n            require(quantity[i] <= MAX_SUPPLY-totalSupply , \"WoofGang: Amount is more than remanining tokens\");\n            for(uint16 j=0; j<quantity[i];j++){\n                require(MAX_SUPPLY >= totalSupply, \"WoofGang: Maximum supply is exceed\");\n                uint256 tokenId = _getRandomNFTTokenID();\n                _totalSupply++;\n                _mint(account[i], tokenId, NFT_AMOUNT, \"\");                \n                emit NFTAirDrop(tokenId);\n            } \n        }\n        totalSupply = _totalSupply;\n    }\n\n\n    /// @dev This function is used for airdrop the tokens to owner which is not minted\n    /// @dev Only the owner can call this function\n    /// @param batchSize `batchSize` is used to send the number of token ids. \n\n    function mintRemainingToOwner(uint256 batchSize) external override onlyOwner whenNotPaused \n    {\n        require(block.timestamp >= mintEndTime , \"WoofGang: Mint process is in progress\");\n        require(MAX_SUPPLY >= totalSupply, \"WoofGang: Maximum supply is exceed\");\n        require(batchSize <= MAX_SUPPLY-totalSupply , \"WoofGang: Amount is more than remanining tokens\");\n        uint256 _totalSupply = totalSupply;\n        for(uint i = 0; i < batchSize; i++) {\n            uint256 tokenId = _getNextRemainingTokenID();\n            _totalSupply++;\n            _mint(msg.sender, tokenId ,NFT_AMOUNT, \"\");            \n            emit NFTAirDrop(tokenId);\n        }\n        totalSupply = _totalSupply;\n    }\n\n    /// @dev The external function for withdraw the amount of share hold by the account \n    /// @param account The account address in which the ether to be send\n    /// @param amount `amount` is used to send the number of token ids.\n\n    function withdraw(address payable account , uint256 amount) external override onlyOwner whenNotPaused nonReentrant \n    {\n        require(account != ZERO_ADDRESS, \"WoofGang: Cannot withdraw to Zero Address\");\n        require(address(this).balance > amount,\"WoofGang: insufficient ether in contract\");\n        payable(account).transfer(amount);\n    }\n\n    /// @dev The external function is used to check the balance of contract\n\n    function balanceOfContract() external view returns(uint256) \n    {\n       return address(this).balance;\n    }\n\n    /// @dev Overridden function called before every token transfer\n\n    function _beforeTokenTransfer(address operator, address from, address to, uint256[] memory ids, uint256[] memory amounts, bytes memory data)\n        internal\n        whenNotPaused\n        override(ERC1155)\n    {\n        super._beforeTokenTransfer(operator, from, to, ids, amounts, data);\n    }\n}\n",
  "sourcePath": "/home/ulap30/blockchain_contracts/woof-gang/contracts/WoofGang.sol",
  "compiler": {
    "name": "solc",
    "version": "0.8.2+commit.661d1103.Emscripten.clang"
  },
  "schemaVersion": "3.4.7",
  "updatedAt": "2022-05-19T11:30:22.682Z",
  "devdoc": {
    "kind": "dev",
    "methods": {
      "airDrop(address[],uint256[])": {
        "details": "This function is used for the airdrop tokens to the given account and amount of tokens.Only the owner can call this function",
        "params": {
          "account": "we need to put account address where owner wants to make Airdrop"
        }
      },
      "balanceOf(address,uint256)": {
        "details": "See {IERC1155-balanceOf}. Requirements: - `account` cannot be the zero address."
      },
      "balanceOfBatch(address[],uint256[])": {
        "details": "See {IERC1155-balanceOfBatch}. Requirements: - `accounts` and `ids` must have the same length."
      },
      "balanceOfContract()": {
        "details": "The external function is used to check the balance of contract"
      },
      "isApprovedForAll(address,address)": {
        "details": "See {IERC1155-isApprovedForAll}."
      },
      "mint(uint256)": {
        "details": "This is the function is used for the minting tokens",
        "params": {
          "quantity": "`quantity` is the number to mint"
        }
      },
      "mintRemainingToOwner(uint256)": {
        "details": "This function is used for airdrop the tokens to owner which is not mintedOnly the owner can call this function",
        "params": {
          "batchSize": "`batchSize` is used to send the number of token ids. "
        }
      },
      "owner()": {
        "details": "Returns the address of the current owner."
      },
      "pause()": {
        "details": "This function would pause the contractOnly the owner can call this function"
      },
      "paused()": {
        "details": "Returns true if the contract is paused, and false otherwise."
      },
      "renounceOwnership()": {
        "details": "Leaves the contract without owner. It will not be possible to call `onlyOwner` functions anymore. Can only be called by the current owner. NOTE: Renouncing ownership will leave the contract without an owner, thereby removing any functionality that is only available to the owner."
      },
      "safeBatchTransferFrom(address,address,uint256[],uint256[],bytes)": {
        "details": "See {IERC1155-safeBatchTransferFrom}."
      },
      "safeTransferFrom(address,address,uint256,uint256,bytes)": {
        "details": "See {IERC1155-safeTransferFrom}."
      },
      "setApprovalForAll(address,bool)": {
        "details": "See {IERC1155-setApprovalForAll}."
      },
      "supportsInterface(bytes4)": {
        "details": "See {IERC165-supportsInterface}."
      },
      "transferOwnership(address)": {
        "details": "Transfers ownership of the contract to a new account (`newOwner`). Can only be called by the current owner."
      },
      "unpause()": {
        "details": "This function would unpause the contractOnly the owner can call this function"
      },
      "updateBaseURI(string)": {
        "details": "This is the function to update the Base URI Only the owner can call this function",
        "params": {
          "newBaseUri": "New Base URI "
        }
      },
      "updateEndTime(uint256)": {
        "details": "This is the function to update the mint nft end timeOnly the owner can call this function",
        "params": {
          "newMintEndTime": "Adding updated Timing for Mint NFT "
        }
      },
      "updateMintPrice(uint256)": {
        "details": "This is the function to update the nft priceOnly the owner can call this function",
        "params": {
          "newMintPrice": "Adding updated NFT Price "
        }
      },
      "uri(uint256)": {
        "details": "The public function for getting the URI string based on token id ",
        "params": {
          "id": "The id of the token whose URI should be get "
        }
      },
      "withdraw(address,uint256)": {
        "details": "The external function for withdraw the amount of share hold by the account ",
        "params": {
          "account": "The account address in which the ether to be send",
          "amount": "`amount` is used to send the number of token ids."
        }
      }
    },
    "version": 1
  },
  "userdoc": {
    "kind": "user",
    "methods": {},
    "version": 1
  }
}